{
  "_format": "hh-sol-artifact-1",
  "contractName": "Box",
  "sourceName": "contracts/Box.sol",
  "abi": [
    {
      "anonymous": false,
      "inputs": [
        {
          "indexed": false,
          "internalType": "uint256",
          "name": "value",
          "type": "uint256"
        }
      ],
      "name": "ValueChanged",
      "type": "event"
    },
    {
      "inputs": [],
      "name": "getValue",
      "outputs": [
        {
          "internalType": "uint256",
          "name": "",
          "type": "uint256"
        }
      ],
      "stateMutability": "view",
      "type": "function"
    },
    {
      "inputs": [
        {
          "internalType": "uint256",
          "name": "_value",
          "type": "uint256"
        }
      ],
      "name": "setValue",
      "outputs": [],
      "stateMutability": "nonpayable",
      "type": "function"
    }
  ],
  "bytecode": "0x608060405234801561001057600080fd5b50610180806100206000396000f3fe608060405234801561001057600080fd5b50600436106100365760003560e01c8063209652551461003b5780635524107714610059575b600080fd5b610043610075565b604051610050919061010e565b60405180910390f35b610073600480360381019061006e91906100d6565b61007e565b005b60008054905090565b806000819055507f93fe6d397c74fdf1402a8b72e47b68512f0510d7b98a4bc4cbdf6ac7108b3c596000546040516100b6919061010e565b60405180910390a150565b6000813590506100d081610133565b92915050565b6000602082840312156100e857600080fd5b60006100f6848285016100c1565b91505092915050565b61010881610129565b82525050565b600060208201905061012360008301846100ff565b92915050565b6000819050919050565b61013c81610129565b811461014757600080fd5b5056fea2646970667358221220a6bff7e233dde298208f71bc03267e94b7150686a935b71bb3094dc32a7ba44a64736f6c63430008040033",
  "linkReferences": {},
  "deployedLinkReferences": {}
}